:020000040800F2
:10000000180700204501000889110008610E00084A
:10001000E5100008490700086D2C000800000000EA
:10002000000000000000000000000000D51A0008D9
:100030009D09000800000000451600089D1D0008ED
:100040005F0100085F0100085F0100085F01000810
:100050005F0100085F0100085F0100085F01000800
:100060005F0100085F0100085F0100085F010008F0
:100070005F0100085F0100085F0100085F010008E0
:100080005F0100085F0100085F0100085F010008D0
:100090005F0100085F0100085F0100085F010008C0
:1000A0005F0100085F0100085F0100085F010008B0
:1000B000252100083D210008592100085F010008A2
:1000C0005F0100085F0100085F0100085F01000890
:1000D0005F010008C5290008D52900088D2A0008FD
:1000E0005F0100085F0100085F0100085F01000870
:1000F0005F0100085F0100085F0100085F01000860
:100100005F0100085F010008752100085F01000819
:10011000B52900085F01000891210008812300082B
:100120005F0100085F0100085F0100085F0100082F
:10013000DFF80CD000F050F900480047292E0008E5
:10014000180700200648804706480047FEE7FEE7FC
:10015000FEE7FEE7FEE7FEE7FEE7FEE7FEE7FEE777
:10016000A11D000831010008F0B480EA0102D40F9B
:100170004200B2EB410F02D20246084611464A0045
:1001800042D0C30DDDB2C1F3C752AD1A202D35DA0E
:10019000C1F3160141F4000204B15242C5F1200638
:1001A00002FA06F12A411044B3EBD05F23D0C4B168
:1001B000012DA0EBC35009DCF0BC4FF0004202EA75
:1001C000C352DBB200F5000000F0D7B8400000F1E8
:1001D000807000EBC350A0F1807040EAD1704900FC
:1001E00009E0490841EAC071A0EBC35000F50000E6
:1001F000400800EBC350F0BC00F0B6B861420122E9
:1002000002EB4101001BF6E7F0BC704781F00041B2
:10021000AAE780F00040A7E780EA010210B502F0EB
:100220000043400022D04A001FD0010E01EB1261B2
:10023000C0F35600C2F3560240F4000042F400023C
:10024000A0FB022000047F39140400D0401C50EAB7
:10025000124001D44000491EC2B20C0604EBD0107B
:10026000401C4008802A02D003E0002010BD20F08E
:100270000100002900DA0020184310BD30B480EAE4
:10028000010202F0004530F0004221F0004013D09E
:1002900090B1C30DD40DC2F31601C0F31600E41AD9
:1002A00041F4000140F400027D34914201D3641C0A
:1002B00000E04900002C02DA30BC002070474FF407
:1002C00000000023914201D3891A034340084FEAFA
:1002D0004101F7D151B1914202D14FF0004105E007
:1002E00002D24FF0010101E06FF0010103EBC450B5
:1002F000284430BC00F038B8C10F80EAE0700844F0
:10030000CA079623002100F038B800F0004220F020
:100310000040C10DC0F3160040F400007F2901DA4F
:1003200000207047962903DCC1F19601C84001E026
:1003300096398840002AF4D04042704730B50B46C9
:10034000014600202022012409E021FA02F59D4205
:1003500005D303FA02F5491B04FA02F52844151ED9
:10036000A2F10102F1DC30BD0029A8BF7047401C9A
:10037000490008BF20F00100704710B4B0FA80FCBB
:1003800000FA0CF050EA010404BF10BC704749B1F8
:10039000CCF1200421FA04F411FA0CF118BF012168
:1003A00021430843A3EB0C01CB1D4FEA00614FEA48
:1003B000102042BF002010BC704700EBC350104417
:1003C0000029A4BF10BC7047401C490008BF20F0A2
:1003D000010010BC70470000064C074D06E0E068C5
:1003E00040F0010394E8070098471034AC42F6D37C
:1003F000FFF7A2FEC8320008E83200082DE9F047F6
:1004000004460D46134EB707281BFFF775FF124928
:100410000860084601683846FFF7FEFE81460F482F
:1004200001680D480068FFF7F1FE82463146FFF78C
:10043000F3FE80464946FFF797FE094908600648E3
:1004400000680649086006480068FFF75EFFBDE8DF
:10045000F0870000CDCC4C3FB0000020B800002059
:10046000B400002010B500F03FF900200B490860EF
:10047000022001F06FFC01200949C1F89801022017
:1004800001F068FC00200549091F0860022001F006
:1004900061FC01200249C1F89C0110BD9C812242EF
:1004A0000080224208B50121202001F0DDF8C020A3
:1004B000ADF8000010208DF8030003208DF8020035
:1004C00069460A4800F0E6FB01200949086009492D
:1004D000C1F89C0100F01AF9072000F017F9132069
:1004E00000F014F9B42001F011FC08BD0014014023
:1004F000988122420080224210B500F0F5F80120D8
:1005000009490860022001F025FC01200749C1F8D3
:100510009C01022001F01EFC00200349091F086015
:10052000022001F017FC10BD9C8122420080224273
:1005300010B500F071F8472000F03CF800F0A0F88A
:1005400000F012F804464FF6FF7000EA0424FFF7AB
:1005500089FF00F009F8204484B2FFF7CDFF00F0D6
:1005600079F8204610BD000070B500F0ABF800240B
:10057000002516E06006040E01200C4908600220E8
:1005800001F0E8FB80210A4800F058FC08B1601C2B
:10059000C4B2002005490860022001F0DBFB681CA2
:1005A000C5B2082DE6DB204670BD000098812242CE
:1005B0000014014070B5044600F096F8002523E0D1
:1005C00004F0800018B101201149086002E0002009
:1005D0000F490860022001F0BDFB01200C49091FF2
:1005E0000860022001F0B6FB00200A49C1F898011A
:1005F000072D02D10120064908606006040E022082
:1006000001F0A8FB681CC5B2082DD9DB70BD000045
:100610009C8122420080224210B500F065F8012042
:100620000A4908600A49C1F89801042001F092FBC8
:10063000002006490860042001F08CFB00200449DA
:10064000C1F89801042001F085FB10BD9C81224275
:100650000080224210B500F047F8002006490860EB
:1006600001200649C1F89801042001F073FB012024
:100670000149086010BD00009C8122420080224296
:1006800010B500F01FF801200B49086001F062FB73
:1006900001200A49C1F8980101F05CFB802108485B
:1006A00000F0CCFB08B1012400E000240020024946
:1006B000091F0860204610BD9C8122420080224212
:1006C0000014014008B58020ADF8000004208DF82A
:1006D000030003208DF802006946024800F0DAFAB0
:1006E00008BD00000014014008B58020ADF80000EE
:1006F00010208DF8030003208DF80200694602489F
:1007000000F0C8FA08BD00000014014010B504460E
:10071000FFF782FF4620FFF74DFFFFF7B1FF2046AE
:10072000FFF748FFFFF7ACFFFFF794FF10BD000095
:100730004142034A11600021024A116070470000E3
:100740006C0000207000002000BFFEE721490A78FD
:100750000978491C1F4B19701F498854097855297D
:1007600003D000211A46117070471B49097855299A
:100770001CD119494978532918D1164909780B29F0
:1007800000DAF1E7134909780B2921DB13490968DD
:10079000491C124A116012490F4A921C13680B60DF
:1007A00052684A6000210B4A1170DDE70A49097856
:1007B00055290DD108494978532909D005490978A7
:1007C000012905D00021044A1170024A1170CBE7BB
:1007D00000BFC9E7D80000200C020020D400002090
:1007E000BE00002010B5002400F042F804E0601CB8
:1007F000C4B2012001F0AEFA01210F4800F01EFB47
:1008000008B1642CF3DB642C01DB012010BD002453
:1008100004E0601CC4B2012001F09CFA01210648EA
:1008200000F00CFB08B9642CF3DB642C01DB012025
:10083000ECE70020EAE700000018014008B50121BC
:10084000402000F011FF0120ADF8000010208DF8CD
:10085000030003208DF802006946044800F01AFAEC
:100860000121024800F0F5FA08BD0000001801401F
:1008700008B50120ADF8000048208DF80300694656
:10088000014800F007FA08BD0018014008B5012032
:10089000ADF8000010208DF8030003208DF8020051
:1008A0006946024800F0F6F908BD00000018014052
:1008B00010B5002404E0601CC4B2012001F04AFA23
:1008C0000121104800F0BAFA08B1642CF3DB0024CF
:1008D00004E0601CC4B2012001F03CFA0121094887
:1008E00000F0ACFA08B9642CF3DB282001F032FAEE
:1008F0000121044800F0A2FA08B1012010BD002037
:10090000FCE700000018014070B50024002506E057
:100910006006040EFFF7CCFF0443681CC5B2082D27
:10092000F6DB204670BD7CB5054600F023F8FFF7E6
:1009300059FFF0B9002405E0FFF7E6FF0DF80400C9
:10094000601CC4B2052CF7DB9DF800009DF8011077
:1009500008449DF8021008449DF8031008449DF8CF
:100960000410884205D19DF8000028709DF802000F
:1009700068707CBD10B5FFF789FF0121064800F0C3
:1009800066FA142001F0C2F90121034800F061FA6F
:100990001E2001F0DFF910BD001801407047000073
:1009A00008B50121402000F05FFE10208DF8030003
:1009B0004FF47F40ADF8000003208DF80200694637
:1009C000014800F067F908BD0018014000B587B084
:1009D0000121084600F048FE0121084600F034FEDF
:1009E0000121042000F040FE0121082000F03CFE1F
:1009F00001212A4800F0DAF90121294800F0D6F94E
:100A00004FF40040ADF8000004208DF80300694663
:100A1000244800F03FF90820ADF8000004208DF8CC
:100A200003006946204800F035F904A801F0B8FF3A
:100A30000020ADF810004FF6FF70ADF81400002054
:100A4000ADF81600ADF8120004A94FF0804001F097
:100A500055FF00231A4603214FF0804001F029FD85
:100A600001A801F0A7FD0A20ADF80C0001A940077C
:100A700001F04AFD0121880701F0FAFC012211462C
:100A8000900701F0A0FD00214FF0804001F008FF29
:100A90000121880701F0F2FC07B000BD0001180039
:100AA0000002300000080140000C014000B587B092
:100AB0000121022000F0C8FD0121042000F0D4FD36
:100AC000C020ADF8000004208DF8030069461C48E2
:100AD00000F0E0F804A801F063FF0020ADF810007A
:100AE0004FF6FF70ADF814000020ADF81600ADF819
:100AF000120004A9134801F001FF00231A46032144
:100B0000104801F0D6FC01A801F054FD0A20ADF810
:100B10000C0001A90B4801F0F7FC0121094801F084
:100B2000A7FC01221146074801F04DFD00210548B0
:100B300001F0B6FE0121034801F0A0FC07B000BDA2
:100B4000000801400004004000B587B001210420E6
:100B500000F07AFD0121082000F086FDC020ADF8EC
:100B6000000004208DF8030069461C4800F092F84C
:100B700004A801F015FF0020ADF810004FF6FF703B
:100B8000ADF814000020ADF81600ADF8120004A96D
:100B9000134801F0B3FE00231A460321104801F068
:100BA00088FC01A801F006FD0A20ADF80C0001A99F
:100BB0000B4801F0A9FC0121094801F059FC012270
:100BC0001146074801F0FFFC0021054801F068FECE
:100BD0000121034801F052FC07B000BD000C0140A8
:100BE0000008004000B587B00121082000F02CFD6E
:100BF0000121042000F038FD0320ADF8000004209E
:100C00008DF8030069461C4800F044F804A801F080
:100C1000C7FE0020ADF810004FF6FF70ADF81400CD
:100C20000020ADF81600ADF8120004A9134801F039
:100C300065FE00231A460321104801F03AFC01A882
:100C400001F0B8FC0A20ADF80C0001A90B4801F036
:100C50005BFC0121094801F00BFC01221146074809
:100C600001F0B1FC0021054801F01AFE0121034802
:100C700001F004FC07B000BD00080140000C00407A
:100C8000024908600021024A116070476C00002090
:100C9000700000202DE9F0410246002500260020CA
:100CA00000230024002791F803C00CF00F0591F8F1
:100CB00003C00CF0100CBCF1000F03D091F802C07F
:100CC0004CEA050591F800C0BCF1000F31D0146862
:100CD00000202BE04FF0010C0CFA00F3B1F800C03B
:100CE0000CEA03069E4220D183004FF00F0C0CFA51
:100CF00003F7BC4305FA03FC4CEA040491F803C073
:100D0000BCF1280F06D14FF0010C0CFA00FCC2F820
:100D100014C00AE091F803C0BCF1480F05D14FF0B0
:100D2000010C0CFA00FCC2F810C0401C0828D1D3FA
:100D30001460B1F800C0BCF1FF0F34DD546800202E
:100D40002EE000F1080C4FF0010808FA0CF3B1F89E
:100D500000C00CEA03069E4221D183004FF00F0C25
:100D60000CFA03F7BC4305FA03FC4CEA040491F8BF
:100D700003C0BCF1280F05D100F1080C08FA0CF8EB
:100D8000C2F8148091F803C0BCF1480F07D100F1FC
:100D9000080C4FF0010808FA0CF8C2F81080401C4B
:100DA0000828CED35460BDE8F0810000F0B50A46B3
:100DB000002300240021002500F00046B6F1004F7A
:100DC00002D11D4EF16901E01B4E7168C0F303456D
:100DD00083B200F44016B6F5401F08D121F07061CF
:100DE000154E766826F07066134F7E6012E000F4B0
:100DF0008016B6F5801F06D1032606FA05F4A14336
:100E000041F0706106E0460D360103FA06F6B14383
:100E100041F0706122B1460D360103FA06F6314306
:100E200000F00046B6F1004F02D1034EF16101E03F
:100E3000014E7160F0BD000000000140024600203C
:100E400093680B400BB1012000E000207047416126
:100E50007047016170470AB1016100E0416170476C
:100E600000BFFEE72DE9FC5F04460D46194E4FF02A
:100E70007E57281B1849086008460068FFF73CFAAF
:100E800039460090FFF7C8F9824613490968134AAA
:100E90001268881AFFF730FA31460090FFF7BCF964
:100EA00083465146FFF760F981460D480068FFF719
:100EB00023FA49460190FFF757F98046FFF725FAD4
:100EC000074908600448006804490860044800684D
:100ED000BDE8FC9F0000F041800000208800002059
:100EE000840000202DE9FC5F04460D46194E4FF0AA
:100EF0007E57281B1849086008460068FFF7FCF970
:100F000039460090FFF788F9824613490968134A69
:100F10001268881AFFF7F0F931460090FFF77CF964
:100F200083465146FFF720F981460D480068FFF7D8
:100F3000E3F949460190FFF717F98046FFF7E5F915
:100F400007490860044800680449086004480068CC
:100F5000BDE8FC9F0000F0418C00002094000020C0
:100F6000900000202DE9FC5F04460D46194E4FF01D
:100F70007E57281B1849086008460068FFF7BCF92F
:100F800039460090FFF748F9824613490968134A29
:100F90001268881AFFF7B0F931460090FFF73CF964
:100FA00083465146FFF7E0F881460D480068FFF799
:100FB000A3F949460190FFF7D7F88046FFF7A5F956
:100FC000074908600448006804490860044800684C
:100FD000BDE8FC9F0000F04198000020A000002028
:100FE0009C0000202DE9FC5F04460D46194E4FF091
:100FF0007E57281B1849086008460068FFF77CF9EF
:1010000039460090FFF708F9824613490968134AE8
:101010001268881AFFF770F931460090FFF7FCF864
:1010200083465146FFF7A0F881460D480068FFF758
:1010300063F949460190FFF797F88046FFF765F995
:1010400007490860044800680449086004480068CB
:10105000BDE8FC9F0000F041A4000020AC0000208F
:10106000A800002008B50121202000F0FDFA102082
:101070008DF803000001ADF8000003208DF8020098
:1010800069460C48FFF706FE28208DF803004FF450
:101090000070ADF8000003208DF802006946054895
:1010A000FFF7F8FD00224FF480710248FFF7D3FEEE
:1010B00008BD0000001401400021024A11600249ED
:1010C000086070476C0000207000002002468A42D1
:1010D00001DD084605E04B429A4201DA484200E051
:1010E0001046704700BFFEE770B50A2500F004F90E
:1010F0000446002C3CD0052C03D12846FFF7C0FD48
:1011000010E0072C03D12846FFF712FB0AE0062C5B
:1011100003D1284600F054FB04E0082C02D12846F5
:10112000FFF7CAFF0B2000F085F818B131211248F3
:1011300001F098FD0D2000F07DF820B105210F4849
:1011400001F0A5FB07E00F2000F074F818B1192199
:101150000A4801F09CFB0C2000F06CF850B1012211
:1011600011020748FFF777FE01200649086001E0F9
:1011700001F08EFF70BD0000004C004000340140C3
:1011800000140140040100207047000070B50021E8
:1011900000230F22C47804B3154C246804F4E064DF
:1011A000C4F5E064210AC1F10403CA40447804FA9A
:1011B00003F184781440214309010E4C0678A155AF
:1011C000047804F01F050124AC4005786D11AD00D2
:1011D00005F1E025C5F8004109E0047804F01F0599
:1011E0000124AC40044D0678761145F8264070BDC8
:1011F0000CED00E000E400E080E100E00249014382
:10120000024A1160704700000000FA050CED00E092
:101210000146481E0122824091B20548008821EA19
:101220000000002801DD012070470020FCE70000DD
:10123000DC00002000B50346184600F013F928B181
:101240001846FFF7E5FF08B1012000BD0020FCE7CC
:10125000002004E00021034A1154411CC8B20928AF
:10126000F8DB70470C03002038B5044601200090DD
:1012700000201E494870012000902EE0BDF80000BB
:10128000204018B101201A49086002E000201849E6
:1012900008600120164908310860052000F05AFD59
:1012A00000201449C1F8BC01052000F053FD0120C5
:1012B0001049C1F8BC010846D0F8300130B10B48E4
:1012C0004078BDF80010084308494870BDF8000098
:1012D0004FF6FF7101EA40000090BDF80000FF28C2
:1012E000CCDD102000F036FD38BD00000C030020DE
:1012F000B48121420080214210B5FFF7A9FF00F020
:10130000C7F811480088114908801148C078104971
:10131000097940EA01200C49088000240FE00D48BB
:1013200010F81400401E012101FA00F00649098856
:10133000084010B9601CC0B210BD601CC4B2102CB3
:10134000EDDB0020F8E70000DC00002000010020B9
:101350000C030020E000002010B5002013490860B5
:10136000102000F0F7FC0120FFF77EFF4320FFF77D
:101370007BFF0020FFF778FF0120FFF775FF0020BB
:10138000FFF772FF0020FFF76FFF0020FFF76CFFF1
:101390000020FFF769FF0020FFF766FF01200449E6
:1013A000C1F8B801102000F0D5FC10BDB881214271
:1013B0000080214210B5002013490860102000F081
:1013C000C9FC0120FFF750FF4320FFF74DFF00202D
:1013D000FFF74AFF0020FFF747FF5A20FFF744FFBF
:1013E0005A20FFF741FF5A20FFF73EFF5A20FFF730
:1013F0003BFF5A20FFF738FF01200449C1F8B8012C
:10140000102000F0A7FC10BDB881214200802142CD
:101410001148806940F008000F4988610F48006852
:1014200020F470200D4908600846006840F4002050
:1014300008600948806940F008000749886107484A
:101440000068C0F3130005490860084600680449B5
:10145000084302490860704700100240040C014034
:10146000000030330146481E0122824091B20648F6
:101470000088064A128850400840002801DD0120FB
:1014800070470020FCE7000000010020DC00002085
:101490001CB5002001900120009000202549086023
:1014A00025490878FFF7E0FE23494878FFF7DCFE7E
:1014B0000220019036E00120009027E001201D4924
:1014C000091D0860052000F045FC00201B49C1F8FB
:1014D000BC01052000F03EFC01201849C1F8BC0108
:1014E0000846D0F8300150B115489DF80410405C12
:1014F000BDF80010084312499DF804208854BDF837
:1015000000004FF6FF7101EA40000090BDF80000B6
:10151000FF28D3DD102000F01DFC9DF80400401CC6
:10152000C0B201909DF804000928C4DB01200149E4
:1015300008601CBDB8812142DE00002000802142ED
:101540000C03002010B500F00DF800F00BF800F0CF
:1015500009F8FFF701FF00F027F800F051F8FFF756
:1015600029FF10BD10B500200D490860102000F0C3
:10157000F1FB0120FFF778FE4220FFF775FE002007
:10158000FFF772FE0020FFF76FFE0020FFF76CFEF2
:1015900001200449C1F8B801102000F0DBFB10BDA8
:1015A000B88121420080214210B500201249086014
:1015B0000120FFF759FE4420FFF756FE0020FFF7F9
:1015C00053FE0120FFF750FEEE20FFF74DFE0020F6
:1015D000FFF74AFE0020FFF747FE0020FFF744FE1A
:1015E0000020FFF741FE01200449C1F8B801102096
:1015F00000F0B0FB10BD0000B88121420080214204
:1016000010B500200D490860102000F0A3FB012058
:10161000FFF72AFE4D20FFF727FE0020FFF724FEEC
:101620000020FFF721FE0120FFF71EFE01200449E4
:10163000C1F8B801102000F08DFB10BDB881214227
:10164000008021427047000029B1064AD269024356
:10165000044BDA6104E0034AD2698243014BDA6148
:10166000704700000010024029B1064A9269024307
:10167000044B9A6104E0034A92698243014B9A61E8
:10168000704700000010024030B500210022002405
:1016900000232D4D6D6805F00C0121B1042905D002
:1016A000082923D105E0294D056022E0274D05607A
:1016B0001FE0254D6D6805F47012234D6D6805F42B
:1016C0008034022505EB92421CB9214D554305603B
:1016D0000BE01D4D6D6805F400351DB11C4D5543E3
:1016E000056002E0194D5543056002E0174D0560A5
:1016F00000BF00BF144D6D6805F0F0010909154DDC
:101700006B5C0568DD4045600F4D6D6805F4E06178
:10171000090A104D6B5C4568DD4085600A4D6D68B7
:1017200005F46051C90A0B4D6B5C4568DD40C5602E
:10173000054D6D6805F44041890B074D6B5CC5682C
:10174000B5FBF3F5056130BD0010024000127A00D0
:1017500000093D0014000020240000200146022959
:1017600006D003290DD0042912D005291ED116E078
:101770004FF08042928C10B200224FF080439A8446
:1017800016E00C4A128810B200220A4B1A800FE0B1
:10179000094A128810B20022074B1A8008E0074A53
:1017A000128810B20022054B1A8001E0002000BF11
:1017B00000BF70472404004024080040240C00406F
:1017C0000021034A11604142024A11607047000043
:1017D0006C0000207000002010B500F04FF90020D0
:1017E0000B490860022000F0B5FA01200949C1F850
:1017F0008001022000F0AEFA00200549091F0860B0
:10180000022000F0A7FA01200249C1F8840110BDAE
:10181000848121420080214208B501210820FFF780
:1018200023FF0320ADF8000010208DF803000320F3
:101830008DF8020069460748FFF72CFA0120064997
:1018400008600649C1F884010321202000F028F92E
:1018500008BD0000000C014080812142008021422F
:1018600010B500F00BF9012009490860022000F0D2
:1018700071FA01200749C1F88401022000F06AFAD8
:1018800000200349091F0860022000F063FA10BD20
:10189000848121420080214270B500F0DDF80024EF
:1018A000002516E06006040E01200C4908600220A5
:1018B00000F050FA02210A48FFF7C0FA08B1601C94
:1018C000C4B2002005490860022000F043FA681CF9
:1018D000C5B2082DE6DB204670BD000080812142A4
:1018E000000C014070B5044600F0C8F8002523E064
:1018F00004F0800018B101201149086002E00020C6
:101900000F490860022000F025FA01200C49091F48
:101910000860022000F01EFA00200A49C1F8800188
:10192000072D02D10120064908606006040E02203E
:1019300000F010FA681CC5B2082DD9DB70BD00009C
:10194000848121420080214210B500F097F80120E7
:101950000A4908600A49C1F88001042000F0FAF938
:10196000002006490860042000F0F4F90020044932
:10197000C1F88001042000F0EDF910BD84812142FE
:101980000080214210B500F079F800200649086077
:1019900001200649C1F88001042000F0DBF9012094
:1019A0000149086010BD000084812142008021426D
:1019B00010B500F051F801200B49086000F0CAF999
:1019C00001200A49C1F8800100F0C4F90221084849
:1019D000FFF734FA08B1012400E000240020024996
:1019E000091F0860204610BD8481214200802142E9
:1019F000000C014070B505460821202000F050F889
:101A0000FFF7A2FFB120FFF76DFFFFF7D1FFFFF750
:101A100043FF0446FFF7E0FE2402FFF73DFF0444C6
:101A2000FFF7DAFEFFF738FF0646FFF7D5FE00BFE7
:101A30002402FFF731FF0444FFF7CEFE2402FFF734
:101A40002BFF0444FFF70CFFFFF79CFF200C2860DE
:101A5000A0B2686070BD000008B50220ADF80000BB
:101A600004208DF8030003208DF802006946024827
:101A7000FFF710F908BD0000000C014008B5022076
:101A8000ADF8000010208DF8030003208DF802004F
:101A900069460248FFF7FEF808BD0000000C01404F
:101AA00070B505460C46FFF74FFFB020FFF71AFF51
:101AB000FFF77EFF2846FFF715FFFFF779FF204667
:101AC000FFF710FFFFF774FFFFF75CFF642000F0E3
:101AD0001DF970BD704710B500F002F810BD000090
:101AE0000CB50020019000903348006840F480302D
:101AF0003149086000BF3048006800F400300090B1
:101B00000198401C0190009818B90198B0F5A06F99
:101B1000F1D12948006800F4003010B10120009094
:101B200001E0002000900098012843D1234800687C
:101B300040F01000214908600846006820F00300CA
:101B400008600846006840F0020008601A484068D3
:101B5000194948600846406848600846406840F4B3
:101B6000806048600846406820F47C104860084661
:101B7000406840F4E81048600846006840F0807013
:101B8000086000BF0C48006800F000700028F9D021
:101B90000948406820F0030007494860084640684B
:101BA00040F00200486000BF0348406800F00C00AD
:101BB0000828F9D10CBD00000010024000200240AE
:101BC0002DE9F05F07460C4615461E46002F07DD3F
:101BD00000203649086001203549C1F8A40106E01B
:101BE00001203249086000203149C1F8A40138467B
:101BF00001F03AFA80461FFA88F12E4800F047FEBD
:101C0000002C08DD002029490831086001202849FE
:101C1000C1F8AC0107E00120244908310860002028
:101C20002349C1F8AC01204601F01EFA81461FFA93
:101C300089F1204800F02DFE002D08DD00201B4911
:101C40001031086001201A49C1F8B40107E00120F1
:101C500016491031086000201549C1F8B401284622
:101C600001F002FA82461FFA8AF1124800F013FED0
:101C7000002E08DD00200D491831086001200C49B4
:101C8000C1F8BC0107E001200849183108600020B4
:101C90000749C1F8BC01304601F0E6F983461FFA56
:101CA0008BF1044800F0F9FDBDE8F09FA00123424C
:101CB00000002342002C014030B50146B1F1807F85
:101CC00001D3012030BD21F07F40401E4FF0E022C3
:101CD000506150170F22002807DA13071D0E094B19
:101CE00000F00F04241F1D5503E013071C0E064BC4
:101CF0001C5400BF00204FF0E022906107201061CB
:101D00000020DFE718ED00E000E400E031B5104806
:101D100000684FF47A71B0FBF1F52846FFF7CCFF6D
:101D2000002408E000BF4FF0E020006900F480309C
:101D30000028F8D0641C00988442F3D34FF0E020D0
:101D4000006920F001004FF0E021086138BD00007B
:101D50000000002031B50F4800680F49B0FBF1F5D5
:101D60002846FFF7A9FF002408E000BF4FF0E0205D
:101D7000006900F480300028F8D0641C0098844288
:101D8000F3D34FF0E020006920F001004FF0E02194
:101D9000086138BD0000002040420F00704700007D
:101DA00010B51348006840F001001149086008466A
:101DB0004068104908400E494860084600680E49CE
:101DC00008400B4908600846006820F4802008603D
:101DD0000846406820F4FE0048604FF41F00886009
:101DE000FFF779FE4FF000600449086010BD000065
:101DF000001002400000FFF8FFFFF6FE08ED00E0D3
:101E0000F0B50C46154600220021068C4FF6FE77F1
:101E10003E400684028B018C4FF60C7632407E1CCD
:101E200006EA03162E433243104EB0420ED0104E37
:101E3000B0420BD0B0F1804F08D00E4EB04205D06A
:101E40000D4EB04202D00D4EB04206D14FF6FD7697
:101E5000314044F00106314305E04FF6F57631405C
:101E600044F00106314302830184F0BD002C01409F
:101E7000003401400004004000080040000C004015
:101E8000F0B50C461546002200210026078C4FF6BF
:101E9000EF7C07EA0C070784028B018C4FF6FF7773
:101EA00007EA041640F6FF473A404FF6FF7707EA85
:101EB00003373A434FF6FF7707EA05273A43114FB6
:101EC000B8420ED0104FB8420BD0B0F1804F08D0BE
:101ED0000E4FB84205D00E4FB84202D00D4FB84257
:101EE00006D14FF6DF77394046F01007394305E059
:101EF0004FF65F77394044F010073943028301847D
:101F0000F0BD0000002C01400034014000040040FE
:101F100000080040000C0040F0B50C4615460022B9
:101F200000210026078C4FF6FF6C07EA0C07078498
:101F3000828B018C4FF6FF7707EA04264FF60C7769
:101F40003A404FF6FF7707EA03172F433A43114F02
:101F5000B8420ED0104FB8420BD0B0F1804F08D02D
:101F60000E4FB84205D00E4FB84202D00D4FB842C6
:101F700006D14FF6FF57394046F48077394305E0E4
:101F80004FF2FF57394044F480773943828301840C
:101F9000F0BD0000002C014000340140000400406E
:101FA00000080040000C0040F0B50C461546002229
:101FB00000210026078C4EF6FF7C07EA0C070784F9
:101FC000828B018C4FF6FF7707EA043640F6FF4715
:101FD0003A404FF6FF7707EA05273A434FF6FF7777
:101FE00007EA03373A43114FB8420ED0104FB842B8
:101FF0000BD0B0F1804F08D00E4FB84205D00E4F35
:10200000B84202D00D4FB84206D14DF6FF773940A5
:1020100046F48057394305E047F6FF57394044F40A
:102020008057394382830184F0BD0000002C0140B9
:10203000003401400004004000080040000C004053
:1020400030B589B004460D4601210846FFF70CFB68
:102050000121C802FFF708FB01210420FFF704FB60
:1020600001212D48FEF7A2FE4FF47060ADF820006C
:1020700018208DF8230003208DF8220008A9274896
:10208000FEF708FEADF81840ADF814500020ADF88A
:102090001A00ADF8160005A9214800F02FFC7020A9
:1020A000ADF804000120ADF806000020ADF80A00EC
:1020B0006010ADF80A000220ADF80C0001A9184824
:1020C00000F08AFA01A9164800F0DCFA01A91448C8
:1020D00000F038FB01A9124800F08EFB01211048E6
:1020E00000F0D8F908210E4800F0C2FA08210C4887
:1020F00000F01AFB08210A4800F074FB0821084888
:1021000000F0B8FB0121064800F0A6F901210448BF
:1021100000F0B4F909B030BD4000160000080140DD
:10212000002C014010B50121880700F0E3F90128D7
:1021300003D10121800700F09EF910BD10B50121E7
:10214000044800F0D7F9012803D10121014800F02B
:1021500092F910BD0004004010B50121044800F0C0
:10216000C9F9012803D10121014800F084F910BD0B
:102170000008004010B50121044800F0BBF9012817
:1021800003D10121014800F076F910BD000C004098
:1021900070B501214E4800F0ADF901287ED1012132
:1021A0004B4800F068F94B49B1F90400FEF7A4F878
:1021B00006464FF08E41FEF761F805464649FEF7A8
:1021C0002BF80446FEF7A1F844490860444801682A
:1021D00042480068FEF712F942490860322141483E
:1021E0000068FEF773FF3F4908601E230846026837
:1021F0003D4801683D48006800F08EFE0220FFF770
:10220000ADFA3B4908600320FFF7A8FA404239497C
:1022100008600420FFF7A2FA404237490860052011
:10222000FFF79CFA3549086035480068304909686D
:10223000084433490860334801682D480068FEF7B8
:1022400011FE31490860314801682A480068FEF7EC
:1022500049FE2F4908602F48016827480068FEF7AB
:1022600081FE2D4908602D48016824480068FEF76A
:10227000B9FE2B4908604FF4F57123480068FEF75A
:1022800025FF214908604FF4F57121480068FEF7E9
:102290001DFF1F4908604FF4F57100E017E01E486C
:1022A0000068FEF713FF1C4908604FF4F5711C48E5
:1022B0000068FEF70BFF1A490860084603681648D5
:1022C00002681348016810480068FFF779FC70BD88
:1022D00000100040BE0000200000344368000020D1
:1022E0007C00002074000020700000206C000020A2
:1022F000580000205C0000206000002064000020E6
:102300007800002038000020480000203C00002019
:102310004C0000204000002050000020440000201D
:10232000540000207FB505460C4601211020FFF720
:102330008BF9ADF80850ADF804400020ADF80A0064
:10234000ADF8060001A90D4800F0D8FA01221146A7
:102350000A4800F038F936208DF8000001208DF889
:1023600003008DF8010003208DF802006846FEF797
:102370000DFF0121014800F081F87FBD00100040F1
:1023800010B50121014800F0B5F810BD001400405F
:1023900030B589B005460C4601214803FFF764F9C2
:1023A00001211020FFF760F94FF47070ADF82000A4
:1023B00018208DF8230003208DF8220008A9244856
:1023C000FEF768FCADF81850ADF814400020ADF8E9
:1023D0001A00ADF8160005A91E4800F08FFA60201B
:1023E000ADF804000120ADF806000020ADF80A00A9
:1023F000ADF80C0001A9174800F0EEF801A9154846
:1024000000F040F901A9134800F09CF901A9114816
:1024100000F0F2F901210F4800F03CF808210D48C6
:1024200000F026F908210B4800F07EF90821094840
:1024300000F0D8F90821074800F01CFA01210548EE
:1024400000F00AF80121034800F018F809B030BD87
:10245000001001400034014021B1028842F08002A6
:10246000028004E002884FF67F731A4002807047B2
:10247000CA4302827047CA430282704721B1028870
:1024800042F00102028004E002884FF6FE731A4017
:102490000280704731B1B0F8442042F40042A0F805
:1024A000442005E0B0F84420C2F30E02A0F8442016
:1024B0007047F0B50C4615461E4600210022002349
:1024C0000189028B038C4FF6F877394021434FF690
:1024D000FC473A4040F201173A434FF6DD773B4064
:1024E0004FF6FF7707EA06172F433B43018102832C
:1024F0000384F0BD02460020138A0B400BB101207B
:1025000000E000207047000070B505460C462448E6
:1025100085420ED0234885420BD0B5F1804F08D0BC
:102520002148854205D02148854202D02048854275
:1025300000D100E000BF208850B92389A2886188BB
:102540002846FFF75DFCE188284600F0ABF925E05E
:10255000208804280AD12389A28861882846FFF7A9
:102560008FFCE188284600F0A6F917E020880828AB
:102570000AD12389A28861882846FFF7CDFCE1882B
:10258000284600F0A5F909E02389A2886188284639
:10259000FFF70AFDE188284600F0A3F970BD0000AE
:1025A000002C0140003401400004004000080040BD
:1025B000000C004000210180418001218180002128
:1025C000C180018170471AB183890B43838102E086
:1025D00083898B438381704770B5002400220023D8
:1025E000058C4FF6FE7635400584028C8388048B7B
:1025F0004FF68F752C40B51E2C400D882C43751E50
:102600002A400D892A434D882A43144DA8420BD0F5
:10261000134DA84208D0134DA84205D0124DA84230
:1026200002D0124DA84213D14FF6F7752A404D89BA
:102630002A434FF6FB752A408D882A434FF6FF65E3
:102640002B404FF6FF552B408D892B43CD892B43D3
:1026500083800483CD888586028470BD002C014070
:102660000034014000400140004401400048014066
:102670000A460021018B4FF6F7731940114301837D
:102680007047000070B5002400220023058C4FF62F
:10269000EF7635400584028C8388048B48F6FF75FD
:1026A0002C404FF6FF452C400D884FF6FF7606EA8A
:1026B00005252C434FF6DF752A400D8906EA0515DE
:1026C0002A434D8806EA05152A43154DA84202D033
:1026D000144DA8421DD14FF67F752A404D894FF603
:1026E000FF7606EA05152A434FF6BF752A408D8806
:1026F00006EA05152A434FF6FF352B404FF2FF75CA
:102700002B408D8906EA85052B43CD8906EA850590
:102710002B4383800483CD880587028470BD00002D
:10272000002C0140003401400A460021018B4FF289
:10273000FF7319404FF6FF7303EA02231943018325
:102740007047000070B5002400220023058C4FF66E
:10275000FF6635400584028C8388848B4FF68F7525
:102760002C404FF6FC752C400D882C434FF6FF553E
:102770002A400D894FF6FF7606EA05252A434D8843
:1027800006EA05252A43154DA84202D0144DA84259
:102790001DD14FF2FF752A404D894FF6FF7606EAAC
:1027A00005252A434FF6FF352A408D8806EA052580
:1027B0002A434EF6FF752B404DF6FF752B408D8951
:1027C00006EA05152B43CD8906EA05152B438380C0
:1027D0008483CD888587028470BD0000002C014071
:1027E000003401400A460021818B4FF6F7731940EF
:1027F000114381837047000070B50022002300243C
:10280000058C4EF6FF7635400584038C8488828BD8
:1028100048F6FF752A404FF6FF452A400D884FF6CF
:10282000FF7606EA05252A434DF6FF752B400D89F4
:1028300006EA05352B434D8806EA05352B430B4D3B
:10284000A84202D00A4DA84208D14BF6FF752C4091
:102850008D894FF6FF7606EA85152C4384808283A6
:10286000CD88A0F84050038470BD0000002C0140CA
:10287000003401400A460021818B4FF2FF7319405A
:102880004FF6FF7303EA0223194381837047818661
:1028900070470187704781877047A0F840107047E4
:1028A00081847047028B4FF6F3731A400283028BC8
:1028B0000A4302837047028B4FF2FF331A400283B0
:1028C000028B4FF6FF7303EA01231A43028370471A
:1028D000828B4FF6F3731A408283828B0A43828382
:1028E0007047828B4FF2FF331A408283828B4FF600
:1028F000FF7303EA01231A43828370470022028890
:102900001D4B98420ED01D4B98420BD0B0F1804F1A
:1029100008D01B4B984205D01A4B984202D01A4B54
:10292000984204D14FF68F731A404B881A43174BC5
:10293000984207D0164B984204D04FF6FF431A40F6
:10294000CB881A4302808B8883850B8803850A4BCA
:1029500098420BD0094B984208D00E4B984205D0B4
:102960000D4B984202D00D4B984201D10B7A038651
:102970000123838270470000002C01400034014095
:102980000004004000080040000C0040001000401F
:102990000014004000400140004401400048014054
:1029A0004FF6FF71818000210180C180418001725A
:1029B0007047000010B52021014800F08AF810BDD2
:1029C000004C004010B52021014800F082F810BDF5
:1029D0000038014010B540F227711C4800F086F81D
:1029E000E0B11B4802780078401C194B1870194858
:1029F000815C164800F036F940F22771134800F068
:102A00004DF81348007814490978884217D10022FC
:102A100040F227710D4800F093F810E040F2255184
:102A20000A4800F063F850B10849091D0988C8B286
:102A3000FDF78CFE40F22551044800F02FF84FF4CA
:102A40005871024800F02AF810BD00000044004010
:102A5000BC0000200C010020BD00002010B5044681
:102A6000074801780078401C054A10700548445416
:102A7000012240F22771044800F062F810BD000006
:102A8000BD0000200C0100200044004010B52021B2
:102A9000014800F01EF810BD0048004010B50022AB
:102AA000002340F66A14A14200D100BF0A1201249B
:102AB0009440A3B2DC43048010BD21B1828942F46A
:102AC0000052828104E082894DF6FF731A408281B0
:102AD000704702460020B1F5007F00D100BF138887
:102AE0000B400BB1012000E00020704770B502469A
:102AF000002400230025002040F66A16B14200D1D0
:102B000000BFC1F3421501F01F03012606FA03F3CB
:102B1000012D02D19689334006E0022D02D1168A9A
:102B2000334001E0968A33400C12012606FA04F481
:102B30001688344013B10CB1012000E0002070BDB4
:102B4000F0B50346002400260025002040F66A1751
:102B5000B94200D100BF1846C1F3421401F01F066C
:102B6000012707FA06F5012C01D10C3004E0022CF4
:102B700001D1103000E014301AB107682F4307600C
:102B800002E00768AF430760F0BD00002DE9F047A1
:102B900086B005460E460024A24600BFA146002787
:102BA000B08900B100BF2F462C8A4CF6FF7004405C
:102BB000F08804432C82AC894EF6F3100440B088B0
:102BC00031890843718908430443AC81AC8A4FF6CC
:102BD000FF400440B0890443AC8201A8FEF754FDD5
:102BE0001F48874202D1DDF810A001E0DDF80CA0FB
:102BF000A88900F4004040B10AEBCA0000EB0A10BB
:102C000031684900B0FBF1F807E00AEBCA0000EBBD
:102C10000A1031688900B0FBF1F86420B8FBF0F0CD
:102C200004012009642101FB1089A88900F40040F7
:102C300040B1322000EBC900B0FBF1F000F007001A
:102C4000044308E0322000EB09106421B0FBF1F0EE
:102C500000F00F0004432C8106B0BDE8F0870000AF
:102C600000380140C1F308028280704700BFFEE7D0
:102C70000FB4054B10B503A9044A029800F018F8E8
:102C800010BC5DF814FB0000052E000808010020B0
:102C900002E008C8121F08C1002AFAD17047704725
:102CA000002001E001C1121F002AFBD17047000083
:102CB0002DE9FF4F89B09B460446002506E02528F4
:102CC0000BD05A460B999047641C6D1C2078002845
:102CD000F5D10DB02846BDE8F08F0027B846012297
:102CE000474900E0074314F8013F203B02FA03F094
:102CF0000842F7D120782E2819D114F8010F47F097
:102D000004072A280ED06FF02F022078A0F130019E
:102D100009290CD808EB880102EB410100EB0108FE
:102D2000641CF2E70A98641C50F8048B0A9020781F
:102D30000028CED0642808D0692806D075281ED077
:102D40005A460B9990476D1C58E00A994FF00A09B2
:102D500001C90A91002802DA40422D2102E039051A
:102D600004D52B218DF82010012103E0F90704D0B0
:102D70002021F7E78A4608AE0DE00021FAE70A991C
:102D80004FF00A0901C90A91F7E74946FDF7D6FA5B
:102D9000303106F8011D0028F7D1ADEB060000F137
:102DA0002009780701D44FF00108C84502DDA8EBDF
:102DB000090000E000208046002706E008A85A46E7
:102DC000C05D0B9990476D1C7F1C5745F6DB04E0F6
:102DD00030205A460B9990476D1CB8F10001A8F1BC
:102DE0000108F5DC05E016F8010B5A460B999047EF
:102DF0006D1CB9F10001A9F10109F4DC641C65E75F
:102E00000928010070B504460D46E1B20548FFF7F8
:102E100029FF00BF80210348FFF75BFE0028F9D09F
:102E2000204670BD004800401CB500F03BF900F0A2
:102E300093F900F0EDF9FDF701FDFEF7EDFCFDF76C
:102E400031FB47214FF4FA70FFF7FAF841F61F41C2
:102E5000C720FFF79DFAFDF7A3FDFDF7B7FDFDF7CE
:102E600025FEFDF771FEFDF7BDFE41F61F41632013
:102E7000FFF758FA1D4800F0FEF84FF47A70FEF79D
:102E800045FFFEF7C5FAFEF75DFB4FF47A70FEF7DB
:102E90003DFFFEF7E7F828E01548FEF7ABFDFDF72C
:102EA00047FB144908801448FDF73DFD124840785F
:102EB00011490978CDE900100D48426801680D48B4
:102EC00003880EA0FFF7D4FEFEF70EF94FF4007151
:102ED0000F48FDF7B3FF012807D1002201020C487B
:102EE000FDF7B9FF00200B490860D5E7CE000020B0
:102EF0002C00002034000020280000200923256435
:102F00002325642325642325642325640A00000007
:102F100000140140040100202DE9FF4F81B08346D9
:102F200014461E460027B846B946BA46002500207A
:102F300000905F44D844D944DA4402980744029888
:102F4000A8EB0008029881440298AAEB000A3846D0
:102F500000F08AF8A84203DD384600F085F80546FF
:102F6000404600F081F8A84203DD404600F07CF8BE
:102F70000546484600F078F8A84203DD484600F0D0
:102F800073F80546504600F06FF8A84203DD50463E
:102F900000F06AF80546204600F066F82844B04282
:102FA00006DC2744A8EB0408A9EB0409A24445E089
:102FB000204600F059F8B0421EDC204600F054F8DC
:102FC000301A00900098784390FBF5F7009808FBC2
:102FD00000F090FBF5F8009809FB00F090FBF5F984
:102FE00000980AFB00F090FBF5FA2744A8EB0408D0
:102FF000A9EB0409A24421E0204600F035F804FBC7
:1030000006F191FBF0F00744204600F02DF804FB98
:1030100006F191FBF0F0A8EB0008204600F024F840
:1030200004FB06F191FBF0F0A9EB0009204600F04B
:103030001BF804FB06F191FBF0F0824406480760A0
:103040000648C0F800800648C0F800900548C0F85F
:1030500000A005B0BDE8F08F380000203C00002043
:1030600040000020440000200146002901DA4842C7
:1030700000E00846704770B50546002404E0285D6E
:10308000FFF7ECFC601CC4B2052CF8DB70BD00003F
:103090000020024908600249086070476C00002067
:1030A0007000002000B587B001210420FEF7DCFA93
:1030B00001214804FEF7C8FA0420ADF818001820D2
:1030C0008DF81B0003208DF81A0006A92048FDF793
:1030D000E1FD0820ADF8180004208DF81B00032046
:1030E0008DF81A0006A91A48FDF7D4FD4FF41650C2
:1030F00002900020ADF814000C20ADF81200002062
:10310000ADF81000ADF80E00ADF80C0002A91148A2
:10311000FFF73CFD01210F48FFF7CFFC012240F2F1
:1031200025510C48FFF70CFD4FF4A060FEF766F840
:1031300026208DF8040001208DF805008DF806008A
:103140008DF8070001A8FEF721F807B000BD0000C8
:10315000000801400044004000B587B0012108206C
:10316000FEF782FA01218804FEF76EFA4FF48060C0
:10317000ADF8180018208DF81B0003208DF81A00F8
:1031800006A92148FDF786FD4FF40060ADF8180050
:1031900004208DF81B0003208DF81A0006A91A4898
:1031A000FDF778FD4FF4165002900020ADF81400A2
:1031B0000C20ADF812000020ADF81000ADF80E00A4
:1031C000ADF80C0002A91148FFF7E0FC01210F48FF
:1031D000FFF773FC012240F225510C48FFF7B0FCC9
:1031E0004FF4A060FEF70AF827208DF804000120B4
:1031F0008DF805008DF806008DF8070001A8FDF791
:10320000C5FF07B000BD0000000C014000480040B1
:1032100000B587B001211020FEF726FA0121C8046D
:10322000FEF712FA4FF48060ADF8180018208DF800
:103230001B0003208DF81A0006A92148FDF72AFD7E
:103240004FF40060ADF8180004208DF81B00032037
:103250008DF81A0006A91A48FDF71CFD4FF4165008
:1032600002900020ADF814000C20ADF812000020F0
:10327000ADF81000ADF80E00ADF80C0002A9114831
:10328000FFF784FC01210F48FFF717FC012240F2F1
:1032900025510C48FFF754FC4FF4A060FDF7AEFF3A
:1032A00034208DF8040001208DF805008DF806000B
:1032B0008DF8070001A8FDF769FF07B000BD000009
:1032C00000100140004C0040E832000800000020DF
:1032D0000C010000902C0008F43300080C010020C1
:1032E0000C060000A02C000800A24A040000000008
:1032F00000000000010203040607080900000000A6
:103300000102030401020304060708090204060877
:1033100000000000000000000000000000000000AD
:10332000000000000000000000000000000000009D
:10333000000000000000000000000000000000008D
:10334000000000000000000000000000000000007D
:10335000000000000000000000000000000000006D
:10336000000000000000000000000000000000005D
:10337000000000000000000000000000000000004D
:10338000000000000000000000000000000000003D
:10339000000000000000000000000000000000002D
:1033A000000000000000000000000000000000001D
:1033B000000000000000FFAA7600000000000000EE
:1033C00000000000000001420100020003000400B0
:1033D000050006000700080009000A000B000C00A9
:1033E0000D000E000F001000FFFF000000000000A5
:0433F00000000000D9
:0400000508000131BD
:00000001FF
